:020000040800F2
:10000000780400200101000823100008C70E000832
:10001000211000086D010008C9110008000000004F
:100020000000000000000000000000004710000871
:100030006F0100080000000045100008491000088A
:100040001B0100081B0100081B0100081B01000820
:100050001B0100081B0100081B0100081B01000810
:100060001B0100081B0100081B0100081B01000800
:100070001B0100081B0100081B0100081B010008F0
:100080001B0100081B0100081B0100081B010008E0
:10009000BD1100081B0100081B0100081B0100081E
:1000A0001B0100081B0100081B0100081B010008C0
:1000B0001B0100081B0100081B0100081B010008B0
:1000C0001B0100081B0100081B0100081B010008A0
:1000D0001B0100081B0100081B0100081B01000890
:1000E0001B0100081B0100081B010008DFF80CD0F1
:1000F00000F02AF800480047E911000878040020C1
:100100000648804706480047FEE7FEE7FEE7FEE7B1
:10011000FEE7FEE7FEE7FEE7FEE7FEE79D100008CC
:10012000ED000008D2B201E000F8012B491EFBD21D
:1001300070470022F6E710B513460A4604461946F2
:10014000FFF7F0FF204610BD064C074D06E0E068C3
:1001500040F0010394E8070098471034AC42F6D30E
:10016000FFF7C8FF1012000830120008FEE77047C2
:10017000704770472DE9F05F054600680024466926
:10018000D0F804908768D0F80CB0D0F810A0D0F860
:100190001880F10748D0F90714D001218160B80711
:1001A00003D5284600F0B6F90CE0780702D54FF4E5
:1001B000006407E0380702D54FF4805402E0284677
:1001C00000F0A7F9F80516D529684FF4807088600B
:1001D000B80503D5284600F09FF90CE0780502D554
:1001E00044F4005407E0380502D544F4804402E0AA
:1001F000284600F090F9F80316D529684FF48030AE
:100200008860B80303D5284600F088F90CE078032D
:1002100002D544F4004407E0380302D544F48034A6
:1002200002E0284600F079F9300707D55FEACB6095
:1002300004D52968102044F40074C86070074FF09A
:10024000080707D55FEA0B7004D52868C760284601
:1002500000F05AF9B00706D52868C068800702D0B8
:10026000284600F052F9700607D55FEACA6004D547
:100270002968102044F480640861B00607D55FEA5D
:100280000A7004D528680761284600F03FF9F00697
:1002900006D528680069800702D0284600F037F9A3
:1002A000B00308D55FEAC96005D529681020486009
:1002B000284600F02DF9F00307D55FEA097004D550
:1002C00028684760284600F02AF9300446D55FEADE
:1002D000497040D5F00504D55FEAC87001D044F0FC
:1002E0000104B00504D55FEA887001D544F002042A
:1002F000700504D55FEA487001D544F00404300568
:1003000029D518F0700F26D008F07000402815D0BD
:1003100006DC102809D020280AD0302816D10AE09F
:1003200050280ED0602811D10EE044F008040DE0F2
:1003300044F010040AE044F0200407E044F04004D4
:1003400004E044F0800401E044F48074286881698A
:1003500021F070018161296804204860002C05D0DB
:10036000686A204368622846FFF703FFBDE8F09FF4
:1003700070B5040003D094F8200010B104E001200F
:1003800070BD204600F082F82068016821F002016B
:10039000016000F0A9F90546052604E000F0A4F983
:1003A000401B0A2811D8206840688007F6D42068CE
:1003B000016841F00101016000F096F905460BE08B
:1003C00000F092F9401B0A2806D9606A40F4003018
:1003D000606284F82060D2E720684068C007EFD0F0
:1003E000207E0128206801683DD021F08001016055
:1003F000607E01282068016838D021F0400101604A
:10040000A07E01282068016833D021F0200101601E
:10041000E07E0128206801682ED041F010010160C3
:10042000207F01282068016829D021F0080101609F
:10043000607F01282068016824D021F00401016058
:10044000D4E902010843D4E9041211430843616866
:10045000491E08432168C86100206062012084F8B9
:100460002000002070BD41F08001C0E741F0400154
:10047000C5E741F02001CAE721F01001CFE741F0C4
:100480000801D4E741F00401D9E7000010B586B0B7
:10049000002100910191029103910068174988425F
:1004A0002AD11748C16941F00071C161C16901F0E9
:1004B00000710491816941F0040181618069114CEE
:1004C00000F0040004904FF400600090694620465C
:1004D00000F026F8A0140090022001900320039061
:1004E0006946204600F01CF800221146142000F056
:1004F00065F9142000F056F906B010BD0064004004
:100500000010024000080140704770477047704774
:100510007047704770477047704770477047704723
:100520002DE9F84FDFF890A100220AF1040B1446E0
:1005300001274FF00F090BF1040E00BF0B6807FAFB
:1005400004F52B40AB4274D1DFF870C14E68A6EBC6
:100550000C0866452BD00DDC032E34D005DC36B3F9
:10056000012E19D0022E2FD11BE0112E16D0122EE3
:100570002AD119E0B8F5881F19D006DCB8F5803FFC
:1005800015D0B8F5801F1FD111E0B8F5001F0ED0AF
:10059000B8F5041F18D10AE0CA6815E0CA68121D30
:1005A00012E0CA6808320FE0CA680C320CE08A68B0
:1005B0002AB1012A4FF0080203D0456104E0042269
:1005C00002E0056100E00022FF2B01D8064601E0B1
:1005D00000F104064FEA840501D9A5F12005D6F8FB
:1005E00000C009FA05F82CEA080C02FA05F54CEAF5
:1005F000050CC6F800C04D68ED0057D5304DAE690A
:1006000046F00106AE61AD6924F0030605F0010570
:1006100000952C4D06EB050CDCF80850A6074FEAB8
:10062000167809FA08F6B543274EB04202D10026E3
:1006300010E03BE0254EB04201D101260AE0244EF5
:10064000B04201D1022605E0224EB04201D103267C
:1006500000E0042606FA08F62E43CCF808604D6840
:10066000DAF80060ED03554601D51E4300E09E43D5
:100670002E604D68DBF80060AD035D4601D51E437A
:1006800000E09E432E604D68DEF80060ED02754686
:1006900001D51E4300E09E432E604D68AD020E4D15
:1006A0002E6801D51E4300E09E432E60641C102C72
:1006B000FFF444AFBDE8F88F0004014000001110C2
:1006C000001002400000014000080140000C014001
:1006D00000100140001401400C0401400AB1016106
:1006E00070470904FBE7000001488068704700007C
:1006F0000000002002488168027811448160704740
:1007000000000020074810B5016841F010010160A9
:10071000032000F073F8002000F006F800F024F841
:10072000002010BD0020024070B50D4D04464FF46E
:100730007A712878B1FBF0F00A490968B1FBF0F052
:1007400000F0DCFA48B9102C07D200222146501ED6
:1007500000F034F800206C6070BD012070BD000016
:10076000000000200C0000200C4808B5816941F011
:1007700001018161816901F001010091C16941F0CC
:100780008051C161C06900F0805000900448416808
:1007900021F0E06141F00071416008BD00100240AD
:1007A0000000014000F01F0201219140400980003B
:1007B00000F1E020C0F8001170470000F0B40E4BCB
:1007C0001B680C46C3F30223C3F10705042D00D9AF
:1007D0000425191D072901D2002300E0DB1E012694
:1007E00006FA05F1491E214099409E40761E1640AA
:1007F0003143F0BC00F016BC0CED00E0064900F0FF
:10080000070208684FF6FF03184040EA0220034A37
:1008100010430860704700000CED00E00000FA058E
:100820002DE9F047DFF8548105460E46D8F8000060
:1008300000F00700B0420CD2D8F8001021F00701F8
:100840003143C8F80010D8F8000000F00700B042AB
:100850006FD128684A4C810712D5400703D56068DC
:1008600040F4E06060602878000703D5606840F4D9
:10087000605060606068A96820F0F0000843606024
:100880002878C00744D06868012816D0216802285B
:1008900016D0890700294CDA616821F00301014371
:1008A0006160FFF721FF6968074641F2883001293E
:1008B0000ED00229814618D026E021688903E9E795
:1008C0008901E7E7FFF710FFC11B494501D918E08F
:1008D00081466068C0F381000128F3D118E000BFB1
:1008E000FFF702FFC11B49450BD86068C0F38100C8
:1008F0000228F5D10CE000BFFFF7F6FEC11B494509
:1009000002D90320BDE8F087606810F00C0FF3D126
:10091000D8F80010404601F00701B1420BD9016838
:1009200021F0070131430160006800F00700B04288
:1009300001D00120E6E72878400705D56068E9681E
:1009400020F4E060084360602878000706D56068FE
:10095000296920F4605040EAC100606000F016F898
:100960006168084AC1F30311515CC8400649086038
:100970000020FFF7D9FE0020C4E70000002002405D
:1009800000100240FE1100080C00002012A185B0EA
:100990000FC98DE80F0014A0144A00680490516834
:1009A000134801F00C03042B10D0082B0ED1C1F317
:1009B0008343C9031DF803000AD5516804AAC1F393
:1009C0004041515C0A4A5043B0FBF1F005B070471A
:1009D00008494843FAE7000002030405060708092E
:1009E0000A0B0C0D0E0F1010010200000010024047
:1009F00000127A0000093D002DE9F84F0446007806
:100A0000B94DC00748D06868C0F38100012807D0FD
:100A10006868C0F38100022809D16868C00306D560
:100A20002868800338D5606800286FD034E060689B
:100A3000B0F5803F0BD010B1B0F5A02F11D02868D1
:100A400020F480302860286820F4802002E02868A4
:100A500040F480302860606888B1FFF745FE0646A4
:100A600009E0286840F480202860F0E7FFF73CFEAA
:100A7000801B642875D828688003F7D50CE0FFF741
:100A800033FE064605E000BFFFF72EFE801B6428FC
:100A9000F0D828688003F7D42078944E80074FF070
:100AA00001094FF000083BD5686810F00C0F07D023
:100AB0006868C0F38100022809D16868C00306D4C1
:100AC0002868800714D5206901281FD110E020690B
:100AD000B0B1C6F80090FFF707FE074605E000BF7B
:100AE000FFF702FEC01B0228C4D828688007F7D58C
:100AF0002868616920F0F80040EAC10028600FE032
:100B0000C6F80080FFF7F0FD074606E0E9E000BF09
:100B1000FFF7EAFDC01B022823D828688007F7D416
:100B2000207800072CD57248A169D9B1C0F800908F
:100B3000FFF7DAFD074604E0FFF7D6FDC01B0228E9
:100B40000FD8686A8007F7D56A484FF4FA510068F1
:100B5000B0FBF1F0009000BF0098411E0091FAD266
:100B60000EE080E0C0F80080FFF7BEFD074604E01D
:100B7000FFF7BAFDC01B022875D8686A8007F7D452
:100B80002078400760D5E8690027C00008D4E869EC
:100B900040F08050E861E869012700F08050009043
:100BA00055480168C90513D40168834641F4807132
:100BB0000160FFF799FD824606E000BFFFF794FD54
:100BC000A0EB0A0064284ED8DBF80000C005F5D57C
:100BD000E06801280AD008B1052813D0286A20F05F
:100BE00001002862286A20F0040002E0286A40F030
:100BF00001002862E06841F2883B98B1FFF774FD7C
:100C000082460BE0286A40F004002862EEE700BF4D
:100C1000FFF76AFDA0EB0A0159455AD8286A8007F8
:100C2000F6D50CE0FFF760FD824605E0FFF75CFDBE
:100C3000A0EB0A0159454CD8286A8007F6D41FB1A9
:100C4000E86920F08050E861E06988B36968C1F321
:100C50008101022945D00228C6F8608004D0FFF740
:100C600043FD044638E034E0FFF73EFD074604E06C
:100C7000FFF73AFDC01B02282BD828688001F7D463
:100C8000206AB0F5803F05D16868A16820F4003083
:100C900008436860D4E908010843696821F47411C5
:100CA00008436860C6F86090FFF71EFD044606E042
:100CB00015E000BFFFF718FD001B022809D82868BF
:100CC0008001F7D50BE000BFFFF70EFD001B0228E7
:100CD00002D90320BDE8F88F28688001F4D40020F1
:100CE000F8E70120F6E70000001002400000424251
:100CF000800442420C0000200070004010B5401EED
:100D0000B0F1807F01D3012010BD4FF0E02460617D
:100D10000F21601700F086F90020A06107202061F4
:100D2000002010BD30B590F83C20012A20D00122CF
:100D300080F83C20022380F83D3003685C6824F092
:100D400070045C6003685C680D682C435C60036839
:100D50009C6824F080049C6003689C6849680C438C
:100D60009C6080F83D20002180F83C10084630BD92
:100D7000022030BD10B5040003D094F83D0010B13E
:100D800007E0012010BD002084F83C00204600F060
:100D90000DF8022084F83D00211D206800F0A2F922
:100DA000012084F83D00002010BD000008B5006857
:100DB0000649884208D10648816941F40061816191
:100DC000806900F40060009008BD0000002C014024
:100DD0000010024070B5044690F83C00012817D07E
:100DE000012584F83C50022084F83D002068826888
:100DF00022F0770222F47F4282600868502837D0C0
:100E00000DDC202859D005DC88B3102841D151E0F1
:100E1000022070BD302853D040283AD13FE06028EE
:100E20002ED070280BD0B0F5805F03D0B0F5005FF6
:100E30002FD110E02068816821F0070115E0CB6810
:100E4000D1E90121206800F083F92168886840F029
:100E5000770088601DE0CB68D1E90121206800F0AF
:100E600077F92068816841F48041816011E01EE0DB
:100E7000CA684968206800F07DF95021206806E0C2
:100E8000CA684968206800F086F96021206800F08F
:100E900069F984F83D50002084F83C0070BDCA68B0
:100EA0004968206800F066F940212068EFE70021DA
:100EB0002068ECE710212068E9E720212068E6E7B8
:100EC00030212068E3E7FEE70F4810B50D490160C7
:100ED0000321416000214FF400228160C0E9031228
:100EE000520042610122027641768176C276017714
:100EF0004177FFF73DFA002803D0BDE81040FFF727
:100F000037B910BD00640040100000202DE9F04307
:100F100085B00024254800940194029403948169CB
:100F200041F020018161816901F020010491816912
:100F300041F004018161816901F00401049181693A
:100F400041F0080181618069DFF8648000F00800E9
:100F500004900022FF214046FFF7C0FBDFF85490C9
:100F600040F20747002239464846FFF7B7FBFF200B
:100F700001250226CDE90005CDE902466946404635
:100F8000FFF7CEFA00970396CDE90154694648462B
:100F9000FFF7C6FAE802CDE9000469464846029424
:100FA000FFF7BEFA05B0BDE8F08300000010024074
:100FB00000080140000C014010B586B0002417481D
:100FC00000940194029403940494134905940160DD
:100FD0004721C0E901144FF6FE71C0E903144461D2
:100FE0008461FFF7C7FE08B1FFF7C2F84FF48050E5
:100FF000009069460948FFF7EDFE08B1FFF7B8F821
:10100000049404A905480594FFF78CFE002801D03C
:10101000FFF7AEF806B010BD002C014038000020EC
:10102000FEE770470907090E002806DA00F00F00F6
:1010300000F1E02080F8141D704700F1E02080F8F6
:101040000014704770477047FFF754BB30B58FB03E
:1010500028216846FFF76DF814210AA8FFF769F800
:1010600001210804CDE90010002402940225049116
:10107000CDE907504FF4E01009906846FFF7BCFC3B
:101080000F20CDE90A056802CDE90C4002210AA82B
:101090000E94FFF7C5FB0FB030BD00000D4801688E
:1010A00041F00101016041680B4A11404160016853
:1010B0000A4A11400160016821F480210160416801
:1010C00021F4FE0141604FF41F0181600449C00317
:1010D00008607047001002400000FFF8FFFFF6FEB6
:1010E00008ED00E0F0B50268164B174C174D4FF0B5
:1010F0008047984205D0B84203D0A04201D0A84210
:1011000003D122F070064A683243984205D0B842B3
:1011100003D0A04201D0A84203D122F44074CA688F
:10112000224322F080044A69224302608A68C26234
:101130000A688262984201D1096901630121416113
:10114000F0BD0000002C01400004004000080040F9
:1011500010B5846842EA032224F47F440A43224300
:10116000826010BD826822F070020A4342F00701DB
:101170008160704710B5036A046A24F001040462B8
:10118000846924F0F00444EA021423F00A020A43BA
:101190008461026210BD10B5036A23F0100303627C
:1011A0008369046A23F4704343EA023224F0A00303
:1011B00043EA01118261016210BD00000148FEF79F
:1011C000D9BF000010000020FEE702E008C8121F8F
:1011D00008C1002AFAD170477047002001E001C120
:1011E000121F002AFBD17047FFF78CFAFFF72EFF82
:1011F000FFF78CFEFFF7E0FEFFF766FEFEE700005C
:1012000000000000000001020304060708090000B6
:10121000301200080000002010000000CA11000871
:10122000401200081000002068040000DA110008D5
:1012300001000000100000000000000000A24A04AD
:04000005080000ED02
:00000001FF
