:020000040800F2
:100000003805002001010008BF1B0008611A000824
:10001000BD1B0008A90200089D1C0008000000008C
:10002000000000000000000000000000E31B0008CA
:100030005703000800000000E11B0008E51B000852
:100040001B0100081B0100081B0100081B01000820
:100050001B0100081B0100081B0100081B01000810
:100060001B0100081B0100081B01000821030008F8
:100070001B0100081B0100081B0100081B010008F0
:100080001B0100081B0100086D0100081B0100088E
:10009000911C00081B0100081B0100081B0100083F
:1000A0001B0100081B0100081B0100081B010008C0
:1000B0001B0100081B0100081B0100081B010008B0
:1000C0001B0100081B0100081B0100081B010008A0
:1000D0001B0100081B0100081B0100081B01000890
:1000E0001B0100081B0100081B010008DFF80CD0F1
:1000F00000F02AF800480047BD1C00083805002021
:100100000648804706480047FEE7FEE7FEE7FEE7B1
:10011000FEE7FEE7FEE7FEE7FEE7FEE7491C000814
:10012000ED000008D2B201E000F8012B491EFBD21D
:1001300070470022F6E710B513460A4604461946F2
:10014000FFF7F0FF204610BD064C074D06E0E068C3
:1001500040F0010394E8070098471034AC42F6D30E
:10016000FFF7C8FF081D0008281D0008014800F01F
:10017000A7B900009C00002070B5044600688168A3
:10018000C943C9071CD1816821F00101816001F0D8
:10019000D3F805460FE000BF01F0CEF8401B02285F
:1001A00009D9A06A40F01000A062E06A40F00100A6
:1001B000E062012070BD20688068C043C007EBD0BA
:1001C000002070BD10B50146406A826A12F0500FDF
:1001D00005D0006A026BBDE8104008461047816AEE
:1001E00041F40071816201688968C1F342410729C5
:1001F0000CD1C16851B9816A21F480718162816A30
:10020000C90403D4816A41F00101816200F024F93C
:1002100010BD10B5406A816A41F040018162C16A37
:1002200041F00401C16200F04AF910BD10B5406A06
:1002300000F044F910BD0000F8B500260446009611
:1002400000688168C943C90728D0816841F001016D
:100250008160134813490068B0FBF1F000E0401ED4
:1002600000900028FBD101F067F8054611E000BFBF
:1002700001F062F8401B02280BD9A06A40F0100080
:10028000A062E06A40F00100E06284F8246001208E
:10029000F8BD20688068C043C007E9D10020F8BDE0
:1002A0001800002040420F00FEE70000064806212B
:1002B00000F1180201614FF4826101600146034BB5
:1002C000034800F0E9BA00004400002004000020C8
:1002D0001001002010B510484FF400410024C0E97F
:1002E00000144FF46041C0E902140461012144612B
:1002F000C0E9064101620146084800F031FB0648AA
:1003000028308460C460054800F0F4FDBDE810406A
:100310000221024800F0AEBA1C00002010010020AB
:10032000014800F01BBE0000CC00002030B590F862
:1003300040500124AC40C56B6C6004686360436846
:10034000102B036803D099600068C26030BD9A60CA
:100350000068C16030BD704770477047F8B5002431
:10036000009490F824202546012A12D0012280F81A
:1003700024204A681F23072A0DD20668776B521E75
:1003800002EB820293409F430B6893401F437763C5
:1003900019E00220F8BD06680D2A0AD2376BD21F79
:1003A00002EB820293409F430B6893401F433763E5
:1003B00009E0F76A0D3A02EB820293409F430B6813
:1003C00093401F43F7620A68072306680A2A0AD384
:1003D000F7680A3A02EB420293409F438B689340CE
:1003E0001F43F76008E0376902EB420293409F43E6
:1003F0008B6893401F4337610A68102A01D0112A85
:1004000020D1124B02689A4217D193681B0219D46B
:10041000936843F4000393600968102912D10C49D2
:100420000C4A0968B1FBF2F101EB8101490000E0DF
:10043000491E00910029FBD104E0816A41F02001AE
:100440008162012480F824502046F8BD0024014038
:100450001800002040420F00F0B50068144A002147
:10046000144B904215D1144C002003F10C061427B4
:10047000A06056F820500022521C2944142AFBDBAD
:10048000B1FBF7F143F820100021401C0328F0DBFA
:10049000A060084819880C380170090A41709988D1
:1004A0008170090AC17019890171090A4171F0BD91
:1004B00000240140680000200000002070477047C1
:1004C00010B5044600684168890626D50168890789
:1004D00023D5A16AC90603D4A16A41F40071A162BF
:1004E0008168C1F34241072910D1E16871B94168BF
:1004F00021F020014160A06A20F48070A062A06A0F
:10050000C00403D4A06A40F00100A0622046FFF7B7
:10051000A3FF21686FF01200086020684168090697
:100520002ED5016849072BD5A16AC90603D4A16A53
:1005300041F40051A1628168C1F30231072909D059
:100540004168490515D48168C1F34241072910D19A
:10055000E16871B9416821F080014160A06A20F42E
:100560008050A062A06AC00503D4A06A40F00100D8
:10057000A0622046FFF7F1FE21686FF00C000860D2
:100580002068416849060DD50068C0070AD0A06AF6
:1005900040F48030A062204600F094F821686FF0AB
:1005A0000100086010BD00002DE9F0414FF0000788
:1005B00004003D467ED0A06A002628B9E66284F891
:1005C0002460204600F080F82046FFF7D5FDA16AA0
:1005D000C90600D420B1A06A40F01000A06269E012
:1005E000A16A21F4885141F00201A1626268E169C7
:1005F000E3680A4347EA43010A43A1684FF480775E
:10060000B94209D0012907D05FF00001D4F814C025
:10061000BCF1010F02D00AE03946F7E7F3B1A36A53
:1006200043F02003A362E36A43F00103E36223681B
:10063000D3F804C02CF4694C4CEA010CC3F804C094
:1006400021688B68DFF870C003EA0C0313438B60EA
:10065000A168B9420BD0012909D00CE0DFF85CC0D9
:10066000A3690CEB43330B4343F40061DFE7218ABA
:100670000D05A5F580152168CB6A23F470032B4383
:10068000CB62216889680E4B1940914208D1E6621D
:10069000A16A21F0020141F00101A162BDE8F081EF
:1006A000A06A20F0020040F01000A062E06A40F072
:1006B0000100E0620120F1E7FDF7E1FF00E0FFFF4C
:1006C000FE0E1FFF7047000070B586B0002506467D
:1006D000009501950295039500681E49884236D120
:1006E0001D49886940F400708861886900F40070D1
:1006F0000490886940F0040088618869694600F0C8
:10070000040004901520009003200190134800F08D
:1007100035FD144C1248C4E900058020C4E902509C
:1007200080002061800060612020C4E90605204629
:1007300000F0BEFC08B1FFF70FFE34620022114644
:100740001220666200F062FE122000F053FE06B036
:1007500070BD00000024014000100240000801406C
:1007600008000240CC0000202DE9F04789460446ED
:100770003B4900683B4F0E1D9046884201D0B8426D
:1007800007D1306810F4702F03D001252846BDE84A
:10079000F08794F8240001280CD0012084F824006C
:1007A0002046FFF749FD05004FF0000004D084F813
:1007B0002400EBE70220EAE7A16A40F601629143D8
:1007C00041F48071A1622168B94218D1326812F4F3
:1007D000702F14D0A16A41F48011A16231684905DB
:1007E00005D5A16A21F4005141F48051A162A16AAA
:1007F000C9040AD5E16A21F00601E16206E0A26AB5
:1008000022F48012A2624968E9E7E06284F82400D9
:10081000216A15488862216A1448C862216A14480E
:10082000086321686FF0020008602068816841F465
:1008300080718160216843464A464C31206A00F04D
:1008400065FC20688168C1F342410729816803D0B3
:1008500041F48011816099E741F4A001FAE70000BA
:100860000024014000280140C50100082D020008B5
:100870001302000890F82020012A07D0022A05D090
:10088000416A41F480214162012070470068426959
:100890000A43426100207047F0B590F82050046888
:1008A000A468012D05D0022D03D0416A41F48021B6
:1008B00053E014F0406F01D1E5004BD5C4F301645F
:1008C000022C03D9416A41F4000146E00125A5400C
:1008D0001D608D684FF4C0739DB1CE6835434E687E
:1008E00045EAC605066803EB0417F5514FF4C275D7
:1008F000076805EB04150E697E51097D012905D0B5
:1009000009E00E88CD6845EA4655EBE701684E5987
:1009100046F480764E511179D2F805504FF4C676E0
:1009200041EA0525016806EB04168D511178D2F8CD
:1009300001204FF4C47541EA0221026805EB041559
:100940005151006803EB0411425842F00102425039
:100950000020F0BD416A41F4001141620120F0BD68
:1009600010B590F820300268012B07D0022B05D07B
:10097000416A41F480214162012010BDD2F8000299
:1009800040F00100C2F80002087D00F01F030120C2
:100990009840D2F81C328343C2F81C32CB69B3B9F9
:1009A000D2F80C328343C2F80C328C894B6864F362
:1009B0001F434C6902EBC404C4F840320C890B6835
:1009C00064F31F434C6902EBC404C4F84432CB699E
:1009D000012B16D1D2F80C320343C2F80C320C882A
:1009E0004B6864F31F434C6902EBC404C4F8403203
:1009F0000C89CB6864F31F434C6902EBC404C4F850
:100A000044328B69002BD2F804320FD053EA000332
:100A1000C2F804320B69002BD2F8143208D0034319
:100A2000C2F81432096A012904D008E08343EFE7D1
:100A30008343F5E7D2F81C120143C2F81C12D2F826
:100A4000000220F00100C2F80002002010BD704733
:100A500030B590F82040012C05D0022C03D0416A1B
:100A600041F480215DE00468002955D02469A40781
:100A700054D04FF4D874056804EB01142D5915F0C7
:100A80000405956005682D594ED0ED085560056840
:100A90002C59C4F34004D4604FF4DA74056804EBB5
:100AA00001142D5905F00F05156105682D59C5F381
:100AB0000725956105682C59240C54614FF4DC72AC
:100AC000046802EB0112A4581C700468A458240A9C
:100AD0005C700468A458240C9C700468A258120E20
:100AE000DA704FF4DE72046802EB0112A4581C7134
:100AF0000468A458240A5C710468A458240C9C71EE
:100B00000468A258120EDA71006881B1016941F0DF
:100B100020010161002030BDE468A8E7416A41F48A
:100B200000114162012030BD6D0D1560AFE7C16855
:100B300041F02001C160EDE72DE9F05F0546006856
:100B400000244669D0F804908768D0F80CB0D0F83B
:100B500010A0D0F81880F10748D0F90714D001216F
:100B60008160B80703D5284600F0F1F90CE078075A
:100B700002D54FF4006407E0380702D54FF48054E3
:100B800002E0284600F0E2F9F80516D529684FF48E
:100B900080708860B80503D5284600F0DAF90CE0CB
:100BA000780502D544F4005407E0380502D544F432
:100BB000804402E0284600F0CBF9F80316D52968F6
:100BC0004FF480308860B80303D5284600F0C3F99D
:100BD0000CE0780302D544F4004407E0380302D562
:100BE00044F4803402E0284600F0B4F9300707D519
:100BF0005FEACB6004D52968102044F40074C86013
:100C000070074FF0080707D55FEA0B7004D5286816
:100C1000C760284600F05AF9B00706D52868C068B2
:100C2000800702D0284600F053F9700607D55FEA26
:100C3000CA6004D52968102044F480640861B006B5
:100C400007D55FEA0A7004D528680761284600F0D6
:100C50004DF9F00606D528680069800702D02846BD
:100C600000F045F9B00308D55FEAC96005D52968E9
:100C700010204860284600F03BF9F00307D55FEAF2
:100C8000097004D528684760284600F065F93004EB
:100C900046D55FEA497040D5F00504D55FEAC870D3
:100CA00001D044F00104B00504D55FEA887001D595
:100CB00044F00204700504D55FEA487001D544F0A1
:100CC0000404300529D518F0700F26D008F0700004
:100CD000402815D006DC102809D020280AD030285A
:100CE00016D10AE050280ED0602811D10EE044F051
:100CF00008040DE044F010040AE044F0200407E08A
:100D000044F0400404E044F0800401E044F48074C2
:100D10002868816921F07001816129680420486098
:100D2000002C05D0686A204368622846FFF78FFED2
:100D3000BDE8F09F70B5040003D094F8200010B116
:100D400004E0012070BD204600F082F820680168B0
:100D500021F00201016000F0EFFA0546052604E0EB
:100D600000F0EAFA401B0A2811D820684068800782
:100D7000F6D42068016841F00101016000F0DCFA5E
:100D800005460BE000F0D8FA401B0A2806D9606A35
:100D900040F40030606284F82060D2E72068406848
:100DA000C007EFD0207E0128206801683DD021F0E7
:100DB00080010160607E01282068016838D021F040
:100DC00040010160A07E01282068016833D021F035
:100DD00020010160E07E0128206801682ED041F0EA
:100DE00010010160207F01282068016829D021F0CE
:100DF00008010160607F01282068016824D021F08B
:100E000004010160D4E902010843D4E9041211434A
:100E100008436168491E08432168C8610020606278
:100E2000012084F82000002070BD41F08001C0E75F
:100E300041F04001C5E741F02001CAE721F010016F
:100E4000CFE741F00801D4E741F00401D9E7000001
:100E500010B586B0002100910191029103910068C4
:100E6000174988422AD11748C16941F00071C16110
:100E7000C16901F000710491816941F0040181614F
:100E80008069114C00F0040004904FF40060009061
:100E90006946204600F072F9A014009002200190EB
:100EA000032003906946204600F068F900221146AD
:100EB000142000F0ABFA142000F09CFA06B010BD2C
:100EC000006400400010024000080140704700002C
:100ED0001CB56B46034A0021FFF7BAFD024900200A
:100EE00008701CBD80000020000000207047704783
:100EF0007047000070B5044690F82000012804D027
:100F0000606A40F40020606218E0022084F820004B
:100F10002068016821F00101016000F00DFA05462A
:100F20000EE000BF00F008FA401B0A2808D9606AEA
:100F300040F400306062052084F82000012070BD7C
:100F400020684068C007EDD1606270BD704770478F
:100F50007047704770477047704700002DE9F05F99
:100F6000C16B0C6801680B68D0F840C0042202FA1B
:100F70000CF2494DDFF824A1494E4A4FDFF828B161
:100F8000DFF828E122422CD05A072AD50A689206B7
:100F900003D40A6822F004020A600168A94201D160
:100FA000042219E0514501D1402215E0B14202D19D
:100FB0004FF4806210E0B94202D14FF480420BE05E
:100FC000594502D14FF4802206E0714502D14FF419
:100FD000800201E04FF080622F4908394A60C16AFF
:100FE0003BE04FF0020808FA0CF818EA040F4FF043
:100FF00000094FF0010235D05FEA837832D50B68E3
:101000009B0605D40B6823F00A030B6080F82120AF
:101010000168A94201D1022219E0514501D12022E3
:1010200015E0B14202D14FF4007210E0B94202D192
:101030004FF400520BE0594502D14FF4003206E064
:10104000714502D14FF4001201E04FF000721249D5
:1010500008394A6080F82090816A00291AD0BDE8DA
:10106000F05F0847082505FA0CF5254212D01B074A
:1010700010D50B6823F00E030B6090F84010C36B83
:1010800002FA01F15960826380F8212080F82090F3
:10109000016BE2E7BDE8F09F080002401C0002403F
:1010A0003000024044000240580002406C00024000
:1010B00030B528B308C8134914221944B1FBF2F122
:1010C0008900C16310498163022141771A6843F6A0
:1010D000F0718A43D0E900142143D0E902452C4342
:1010E0002143046921434469214384692143114315
:1010F000196000214163012242770177084630BD23
:10110000012030BDF8FFFDBF0000024070B504466D
:1011100090F82000002501280CD0012084F8200040
:1011200094F821600020012E06D084F820000225CA
:10113000284670BD022070BD022684F82160A0639D
:101140002068066826F0010606602046FFF7EEF8E4
:10115000E06A00282068016802D041F00E0106E034
:1011600021F0040101602068016841F00A0101607A
:101170002068016841F001010160D9E72DE9F84FCD
:10118000DFF890A100220AF1040B144601274FF06A
:101190000F090BF1040E00BF0B6807FA04F52B4092
:1011A000AB4274D1DFF870C14E68A6EB0C086645FF
:1011B0002BD00DDC032E34D005DC36B3012E19D034
:1011C000022E2FD11BE0112E16D0122E2AD119E09B
:1011D000B8F5881F19D006DCB8F5803F15D0B8F5F2
:1011E000801F1FD111E0B8F5001F0ED0B8F5041F05
:1011F00018D10AE0CA6815E0CA68121D12E0CA6870
:1012000008320FE0CA680C320CE08A682AB1012A61
:101210004FF0080203D0456104E0042202E00561BA
:1012200000E00022FF2B01D8064601E000F1040691
:101230004FEA840501D9A5F12005D6F800C009FAC6
:1012400005F82CEA080C02FA05F54CEA050CC6F87C
:1012500000C04D68ED0057D5304DAE6946F001062F
:10126000AE61AD6924F0030605F0010500952C4D33
:1012700006EB050CDCF80850A6074FEA167809FAC9
:1012800008F6B543274EB04202D1002610E03BE0FD
:10129000254EB04201D101260AE0244EB04201D1D0
:1012A000022605E0224EB04201D1032600E00426CA
:1012B00006FA08F62E43CCF808604D68DAF80060AC
:1012C000ED03554601D51E4300E09E432E604D6858
:1012D000DBF80060AD035D4601D51E4300E09E4390
:1012E0002E604D68DEF80060ED02754601D51E43A4
:1012F00000E09E432E604D68AD020E4D2E6801D574
:101300001E4300E09E432E60641C102CFFF444AF8B
:10131000BDE8F88F000401400000111000100240E9
:101320000000014000080140000C01400010014095
:10133000001401400C04014001488068704700001F
:101340000C000020024881680278114481607047D7
:101350000C000020074810B5016841F01001016041
:10136000032000F073F8002000F006F800F024F8E5
:10137000002010BD0020024070B50D4D04464FF412
:101380007A712878B1FBF0F00A490968B1FBF0F0F6
:1013900000F052FB48B9102C07D200222146501E03
:1013A00000F034F800206C6070BD012070BD0000BA
:1013B0000C000020180000200C4808B5816941F09D
:1013C00001018161816901F001010091C16941F070
:1013D0008051C161C06900F08050009004484168AC
:1013E00021F0E06141F00071416008BD0010024051
:1013F0000000014000F01F020121914040098000DF
:1014000000F1E020C0F8001170470000F0B40E4B6E
:101410001B680C46C3F30223C3F10705042D00D952
:101420000425191D072901D2002300E0DB1E012637
:1014300006FA05F1491E214099409E40761E16404D
:101440003143F0BC00F0BCBB0CED00E0064900F0FD
:10145000070208684FF6FF03184040EA0220034ADB
:1014600010430860704700000CED00E00000FA0532
:101470002DE9F84305460078354CC00754D0E069A3
:101480000026C00008D4E06940F08050E061E069C7
:10149000012600F0805000902E480168C90512D442
:1014A0000168804641F480710160FFF745FF0746FF
:1014B00005E000BFFFF740FFC01B642823D8D8F821
:1014C0000000C005F6D5206A10F4407021D0A9882C
:1014D00001F4407181421CD0206A1F49012220F48E
:1014E00040700A6000220A602062C00711D0FFF736
:1014F00023FF074641F2883808E000BFFFF71CFFD2
:10150000C11B414502D90320BDE8F883206A80074A
:10151000F4D5206A696820F44070084320621EB147
:10152000E06920F08050E0612878800705D5606888
:10153000A96820F44040084360602878C00605D5BB
:101540006068E96820F48000084360600020DBE701
:101550000010024000700040400442422DE9F04774
:10156000DFF8548105460E46D8F8000000F0070069
:10157000B0420CD2D8F8001021F007013143C8F86E
:101580000010D8F8000000F00700B0426FD12868C2
:101590004A4C810712D5400703D5606840F4E060EB
:1015A00060602878000703D5606840F46050606090
:1015B0006068A96820F0F000084360602878C007E0
:1015C00044D06868012816D02168022816D08907FF
:1015D00000294CDA616821F0030101436160FFF7E3
:1015E000ABFE6968074641F2883001290ED0022916
:1015F000814618D026E021688903E9E78901E7E7F9
:10160000FFF79AFEC11B494501D918E08146606881
:10161000C0F381000128F3D118E000BFFFF78CFE72
:10162000C11B49450BD86068C0F381000228F5D181
:101630000CE000BFFFF780FEC11B494502D9032023
:10164000BDE8F087606810F00C0FF3D1D8F80010F7
:10165000404601F00701B1420BD9016821F00701B2
:1016600031430160006800F00700B04201D0012062
:10167000E6E72878400705D56068E96820F4E0606F
:10168000084360602878000706D56068296920F45F
:10169000605040EAC100606000F016F86168084AD6
:1016A000C1F30311515CC840064908600020FFF7F0
:1016B00063FE0020C4E7000000200240001002404A
:1016C000F81C00081800002012A185B00FC98DE891
:1016D0000F0014A0144A006804905168134801F0E8
:1016E0000C03042B10D0082B0ED1C1F38343C90384
:1016F0001DF803000AD5516804AAC1F34041515CAA
:101700000A4A5043B0FBF1F005B07047084948431E
:10171000FAE7000002030405060708090A0B0C0D8E
:101720000E0F1010010200000010024000127A009B
:1017300000093D002DE9F84F04460078B94DC00777
:1017400048D06868C0F38100012807D06868C0F3FA
:101750008100022809D16868C00306D52868800383
:1017600038D5606800286FD034E06068B0F5803FFD
:101770000BD010B1B0F5A02F11D0286820F4803024
:101780002860286820F4802002E0286840F4803037
:101790002860606888B1FFF7CFFD064609E0286839
:1017A00040F480202860F0E7FFF7C6FD801B642826
:1017B00075D828688003F7D50CE0FFF7BDFD064615
:1017C00005E000BFFFF7B8FD801B6428F0D828684B
:1017D0008003F7D42078944E80074FF001094FF032
:1017E00000083BD5686810F00C0F07D06868C0F39C
:1017F0008100022809D16868C00306D428688007E0
:1018000014D5206901281FD110E02069B0B1C6F8B5
:101810000090FFF791FD074605E000BFFFF78CFD44
:10182000C01B0228C4D828688007F7D528686169DA
:1018300020F0F80040EAC10028600FE0C6F8008000
:10184000FFF77AFD074606E0E9E000BFFFF774FD09
:10185000C01B022823D828688007F7D42078000707
:101860002CD57248A169D9B1C0F80090FFF764FD8A
:10187000074604E0FFF760FDC01B02280FD8686A26
:101880008007F7D56A484FF4FA510068B0FBF1F0D1
:10189000009000BF0098411E0091FAD20EE080E057
:1018A000C0F80080FFF748FD074604E0FFF744FD5D
:1018B000C01B022875D8686A8007F7D420784007D3
:1018C00060D5E8690027C00008D4E86940F080507E
:1018D000E861E869012700F08050009055480168F0
:1018E000C90513D40168834641F480710160FFF794
:1018F00023FD824606E000BFFFF71EFDA0EB0A00B5
:1019000064284ED8DBF80000C005F5D5E068012852
:101910000AD008B1052813D0286A20F001002862F7
:10192000286A20F0040002E0286A40F001002862E2
:10193000E06841F2883B98B1FFF7FEFC82460BE07D
:10194000286A40F004002862EEE700BFFFF7F4FCCD
:10195000A0EB0A0159455AD8286A8007F6D50CE051
:10196000FFF7EAFC824605E0FFF7E6FCA0EB0A0180
:1019700059454CD8286A8007F6D41FB1E86920F091
:101980008050E861E06988B36968C1F38101022988
:1019900045D00228C6F8608004D0FFF7CDFC04468D
:1019A00038E034E0FFF7C8FC074604E0FFF7C4FC6A
:1019B000C01B02282BD828688001F7D4206AB0F514
:1019C000803F05D16868A16820F400300843686052
:1019D000D4E908010843696821F474110843686078
:1019E000C6F86090FFF7A8FC044606E015E000BFCB
:1019F000FFF7A2FC001B022809D828688001F7D550
:101A00000BE000BFFFF798FC001B022802D903205F
:101A1000BDE8F88F28688001F4D40020F8E70120A1
:101A2000F6E70000001002400000424280044242FB
:101A3000180000200070004010B5401EB0F1807FFB
:101A400001D3012010BD4FF0E02460610F21601729
:101A500000F0B6F80020A06107202061002010BD32
:101A6000FEE70000FEB500241C48009401941A49CA
:101A700002940160891501254461C0E9021503261D
:101A800006614FF460214460C161FEF78DFD08B12D
:101A9000FEF762FC07200094CDE9015069460F482B
:101AA000FEF75CFC08B1FEF757FC022000900190A5
:101AB00069460A48FEF752FC08B1FEF74DFC0420C7
:101AC000CDE9000669460548FEF748FC002801D02C
:101AD000FEF742FCFEBD0000002401409C000020F7
:101AE0000F4810B50D4901600321416000214FF4FA
:101AF00000228160C0E90312520042610122027695
:101B000041768176C27601774177FFF713F9002895
:101B100003D0BDE81040FEF71FBC10BD00640040BC
:101B200010010020094808B5416941F001014161F7
:101B30004069002200F00100009011460B20FFF7E1
:101B400065FCBDE808400B20FFF754BC00100240C4
:101B500030B585B00024164801940394816941F0A2
:101B600020018161816901F020010491816941F0C6
:101B700004018161816901F004010491816941F0EE
:101B8000080181618069012500F00800049080202F
:101B90000090694602950748FFF7F0FA40F20240CC
:101BA0008DE8310069460448FFF7E8FA05B030BD1A
:101BB0000010024000080140000C0140FEE77047A1
:101BC0000907090E002806DA00F00F0000F1E020F6
:101BD00080F8141D704700F1E02080F80014704771
:101BE00070477047FFF7AEBB30B593B02821684609
:101BF000FEF79FFA14210AA8FEF79BFA00240120A1
:101C00000F9410941194010412948DE81300049021
:101C10004FF4E010CDE90810022507956846FFF75C
:101C200089FD0F20CDE90A056802CDE90C400221AB
:101C30000AA80E94FFF792FCA80311900F950FA825
:101C4000FFF716FC13B030BD0D48016841F00101EB
:101C5000016041680B4A1140416001680A4A114025
:101C60000160016821F480210160416821F4FE01D6
:101C700041604FF41F0181600449C0030860704750
:101C8000001002400000FFF8FFFFF6FE08ED00E044
:101C90000148FEF751BF000010010020FEE702E0FE
:101CA00008C8121F08C1002AFAD1704770470020E7
:101CB00001E001C1121F002AFBD17047FFF74AFB68
:101CC000FFF792FFFFF744FFFFF72CFFFFF708FF36
:101CD000FFF7C8FEFEF7FEFA032205490548FEF7A6
:101CE00043FD0448FEF7B8FBFEF7E0FAF9E7000011
:101CF000740000209C000020000000000000000094
:101D00000102030406070809281D0008000000203E
:101D10001C0000009E1C0008441D00081C00002040
:101D20001C050000AE1C00080100000000000000BF
:101D30000000000001000000100000000000000092
:041D400000A24A04AF
:04000005080000ED02
:00000001FF
