:020000040800F2
:10000000C0060020010100083F2700083524000831
:100010003D2700087D0500081D2C00080000000099
:10002000000000000000000000000000B3280008ED
:10003000E10500080000000061270008ED28000825
:10004000212C00081B0100081B0100081B010008EF
:100050001B0100081B0100081B0100081B01000810
:100060001B0100081B0100081B010008D505000842
:100070001B0100081B0100081B0100081B010008F0
:100080001B0100081B0100081B0100081B010008E0
:10009000112C00081B0100081B0100081B010008AF
:1000A0001B0100081B0100081B0100081B010008C0
:1000B0001B0100081B0100081B0100081B010008B0
:1000C0001B0100081B0100081B0100081B010008A0
:1000D0001B0100081B0100081B0100081B01000890
:1000E0001B0100081B0100081B010008DFF80CD0F1
:1000F00000F00CFA004800474B2C0008C006002016
:100100000648804706480047FEE7FEE7FEE7FEE7B1
:10011000FEE7FEE7FEE7FEE7FEE7FEE761290008EF
:10012000ED000008202A04DB203A21FA02F0002129
:10013000704721FA02F3D040C2F1200291400843F7
:1001400019467047D2B201E000F8012B491EFBD2DC
:1001500070470022F6E710B513460A4604461946D2
:10016000FFF7F0FF204610BD2DE9FE4F804681EAE3
:100170000300C00F0C46009021F0004123F0004521
:10018000B8EB0200A94105D24046214690461C46E4
:100190000B46024623F00040104347D0270DC7F31B
:1001A0000A00C3F30A510290401A019040286BDA0A
:1001B000C3F3130040F4801B0098924620B1002343
:1001C000D2EB030A63EB0B0B01985946C0F14002D6
:1001D000504600F01DF906460D4650465946019A14
:1001E00000F025F910EB08006141002487EA115264
:1001F00084EAE7731A4340D0009A62B3019A012A55
:100200004FEA075215DC001B61EB02014FF0004280
:1002100002EA0752CDE90042001C41F58011324646
:100220002B4600F025F903B0BDE8F08F404621468B
:10023000F9E7001B61EB0201001C41F58013001877
:100240005B412018A2F5001747EB030140EAD57087
:10025000B6196D4111E06D084FEA360645EAC075E2
:100260004FEA0752001B61EB0201001C41F58011AF
:1002700049084FEA30000019514132462B4603B07D
:10028000BDE8F04F00F0E5B80098012240000023DF
:10029000D0EB020263EBE073009821464FEAE07472
:1002A000B8EB000061EB0401E9E783F000435BE792
:1002B00081F0004158E72DE9F04D81EA030404F094
:1002C000004B21F0004514464FF0000A23F0004196
:1002D00050EA050220D054EA01021DD0C5F30A57A6
:1002E0000246C5F31303C1F31300C1F30A5640F4E9
:1002F000801543F48013A7EB0608101BD64608F2BE
:10030000FD3873EB050002D308F1010801E09218F3
:100310005B41B8F1000F03DA00200146BDE8F08D23
:1003200000204FF48011064684460EE0171B73EB45
:10033000050705D3121B63EB050306434CEA010CCA
:1003400049084FEA300092185B4150EA0107EDD1AD
:1003500052EA030012D082EA040083EA050108434E
:1003600005D0101BAB4106D20122002306E000227B
:100370004FF0004302E06FF0010253101AEB060049
:100380004CEB085110EB0A0041EB0B01BDE8F04DBE
:1003900000F05FB80EB540F2334102910021CDE983
:1003A00000110A460B4600F063F803B000BD0000E0
:1003B00030B5041E71F1000404DB4FF000444042EC
:1003C00064EB0101141E73F1000405DB1C464FF0C1
:1003D0000043524263EB04038B4208BF824230BDAC
:1003E00030B5041E71F1000404DB4FF000444042BC
:1003F00064EB0101141E73F1000405DB1C464FF091
:100400000043524263EB0403994208BF904230BD5F
:10041000202A04DB203A00FA02F1002070479140C4
:10042000C2F1200320FA03F3194390407047202AB9
:1004300006DBCB17203A41FA02F043EAE07306E00C
:1004400041FA02F3D040C2F120029140084319461C
:10045000704710B5141E73F1000408DA401C41F116
:10046000000192185B411A4301D120F0010010BD38
:100470002DE9F04D92469B4611B1B1FA81F202E0AE
:10048000B0FA80F220329046FFF7C2FF04460F46D2
:1004900040EA0A0041EA0B0153465A46084313D08A
:1004A000114653EA010019D0C8F140025046FFF747
:1004B00039FE05460E46504659464246FFF7A8FF0C
:1004C000084305D0012004E020463946BDE8F08D00
:1004D0000020054346EAE0762C4337430A9863053B
:1004E000E40AA0EB08000022FD0A44EA47540A305F
:1004F00002D500200146E9E7010510196941DDE94F
:10050000084500196941BDE8F04DA2E7064C074DCA
:1005100006E0E06840F0010394E8070098471034D3
:10052000AC42F6D3FFF7E6FDA02C0008C02C000873
:1005300070B5044600688168C943C9071CD1816849
:1005400021F00101816000F06FFF05460FE000BF60
:1005500000F06AFF401B022809D9A06A40F0100091
:10056000A062E06A40F00100E062012070BD2068F6
:100570008068C043C007EBD0002070BDFEE70000DC
:100580000D4910B500208860C860283908604860AF
:100590008860C8600861486188610120C86108629C
:1005A000064800F065FA054800F054FDBDE810402B
:1005B0000221024800F0E6B9C40000205C010020DE
:1005C000034801780029FCD1012101707047000027
:1005D00000000020014800F071BD0000180100205B
:1005E000704770472DE9FC4136484FF48261344C26
:1005F0000160012101610146DFF8C08004F124039C
:10060000621C314800F0D0F92E4D183528786978F1
:1006100040EA0120FFF7BEFEC4E916010646A878AD
:100620000F46E97840EA0120FFF7B4FEC4E918015B
:100630002879697940EA0120FFF7ACFEC4E914018A
:100640000022224B30463946FFF72FFE0022454656
:100650004346FFF730FE1D4B0022C4E91A01CDE9E5
:10066000002302460B460020014602F023F9C4E9AC
:100670001A01D4E914010022154BFFF716FE0022DF
:100680001346C4E91401FFF793FE4FF0000201D2B4
:10069000104B00E02B46D4E91401FFF70CFEC4E92F
:1006A00014010A490020CDE90001D4E914230A49C4
:1006B00002F000F9C4E91401BDE8FC8100002E40FD
:1006C00000000020C40000205C0100200000F03F7A
:1006D0000000304000006E400000F0BFF8B500247C
:1006E000009490F824202546012A12D0012280F897
:1006F00024204A681F23072A0DD20668776B521EF2
:1007000002EB820293409F430B6893401F43776341
:1007100019E00220F8BD06680D2A0AD2376BD21FF5
:1007200002EB820293409F430B6893401F43376361
:1007300009E0F76A0D3A02EB820293409F430B688F
:1007400093401F43F7620A68072306680A2A0AD300
:10075000F7680A3A02EB420293409F438B6893404A
:100760001F43F76008E0376902EB420293409F4362
:100770008B6893401F4337610A68102A01D0112A01
:1007800020D1124B02689A4217D193681B0219D4E8
:10079000936843F4000393600968102912D10C494F
:1007A0000C4A0968B1FBF2F101EB8101490000E05C
:1007B000491E00910029FBD104E0816A41F020012B
:1007C0008162012480F824502046F8BD00240140B5
:1007D0007C00002040420F002DE9F0414FF000075F
:1007E00004003D467ED0A06A002628B9E66284F85F
:1007F0002460204600F07EF82046FFF799FEA16AAB
:10080000C90600D420B1A06A40F01000A06269E0DF
:10081000A16A21F4885141F00201A1626268E16994
:10082000E3680A4347EA43010A43A1684FF480772B
:10083000B94209D0012907D05FF00001D4F814C0F3
:10084000BCF1010F02D00AE03946F7E7F3B1A36A21
:1008500043F02003A362E36A43F00103E3622368E9
:10086000D3F804C02CF4694C4CEA010CC3F804C062
:1008700021688B68DFF870C003EA0C0313438B60B8
:10088000A168B9420BD0012909D00CE0DFF85CC0A7
:10089000A3690CEB43330B4343F40061DFE7218A88
:1008A0000D05A5F580152168CB6A23F470032B4351
:1008B000CB62216889680E4B1940914208D1E662EB
:1008C000A16A21F0020141F00101A162BDE8F081BD
:1008D000A06A20F0020040F01000A062E06A40F040
:1008E0000100E0620120F1E7FDF7E1FF00E0FFFF1A
:1008F000FE0E1FFF70B586B00025064600950195D7
:100900000295039500681A4988422ED119498869D1
:1009100040F400708861886900F400700490886970
:1009200040F0040088618869694600F00400049082
:1009300005200090032001900F4800F097FC104C18
:100940000E48C4E900058020C4E9025080002061FF
:10095000800060612020C4E90605204600F058FCB4
:1009600008B1FFF73EFE3462666206B070BD00005B
:10097000002401400010024000080140080002402D
:100980001801002090F82020012A07D0022A05D063
:10099000416A41F480214162012070470068426948
:1009A0000A43426100207047F0B590F82050046877
:1009B000A468012D05D0022D03D0416A41F48021A5
:1009C00053E014F0406F01D1E5004BD5C4F301644E
:1009D000022C03D9416A41F4000146E00125A540FB
:1009E0001D608D684FF4C0739DB1CE6835434E686D
:1009F00045EAC605066803EB0417F5514FF4C275C6
:100A0000076805EB04150E697E51097D012905D0A3
:100A100009E00E88CD6845EA4655EBE701684E5976
:100A200046F480764E511179D2F805504FF4C676CF
:100A300041EA0525016806EB04168D511178D2F8BC
:100A400001204FF4C47541EA0221026805EB041548
:100A50005151006803EB0411425842F00102425028
:100A60000020F0BD416A41F4001141620120F0BD57
:100A700010B590F820300268012B07D0022B05D06A
:100A8000416A41F480214162012010BDD2F8000288
:100A900040F00100C2F80002087D00F01F030120B1
:100AA0009840D2F81C328343C2F81C32CB69B3B9E8
:100AB000D2F80C328343C2F80C328C894B6864F351
:100AC0001F434C6902EBC404C4F840320C890B6824
:100AD00064F31F434C6902EBC404C4F84432CB698D
:100AE000012B16D1D2F80C320343C2F80C320C8819
:100AF0004B6864F31F434C6902EBC404C4F84032F2
:100B00000C89CB6864F31F434C6902EBC404C4F83E
:100B100044328B69002BD2F804320FD053EA000321
:100B2000C2F804320B69002BD2F8143208D0034308
:100B3000C2F81432096A012904D008E08343EFE7C0
:100B40008343F5E7D2F81C120143C2F81C12D2F815
:100B5000000220F00100C2F80002002010BD704722
:100B600030B590F82040012C05D0022C03D0416A0A
:100B700041F480215DE00468002955D02469A40770
:100B800054D04FF4D874056804EB01142D5915F0B6
:100B90000405956005682D594ED0ED08556005682F
:100BA0002C59C4F34004D4604FF4DA74056804EBA4
:100BB00001142D5905F00F05156105682D59C5F370
:100BC0000725956105682C59240C54614FF4DC729B
:100BD000046802EB0112A4581C700468A458240A8B
:100BE0005C700468A458240C9C700468A258120E0F
:100BF000DA704FF4DE72046802EB0112A4581C7123
:100C00000468A458240A5C710468A458240C9C71DC
:100C10000468A258120EDA71006881B1016941F0CE
:100C200020010161002030BDE468A8E7416A41F479
:100C300000114162012030BD6D0D1560AFE7C16844
:100C400041F02001C160EDE72DE9F05F0546006845
:100C500000244669D0F804908768D0F80CB0D0F82A
:100C600010A0D0F81880F10748D0F90714D001215E
:100C70008160B80703D5284600F019FA0CE0780720
:100C800002D54FF4006407E0380702D54FF48054D2
:100C900002E0284600F00AFAF80516D529684FF454
:100CA00080708860B80503D5284600F002FA0CE091
:100CB000780502D544F4005407E0380502D544F421
:100CC000804402E0284600F0F3F9F80316D52968BD
:100CD0004FF480308860B80303D5284600F0EBF964
:100CE0000CE0780302D544F4004407E0380302D551
:100CF00044F4803402E0284600F0DCF9300707D5E0
:100D00005FEACB6004D52968102044F40074C86001
:100D100070074FF0080707D55FEA0B7004D5286805
:100D2000C760284600F05AF9B00706D52868C068A1
:100D3000800702D0284600F053F9700607D55FEA15
:100D4000CA6004D52968102044F480640861B006A4
:100D500007D55FEA0A7004D528680761284600F0C5
:100D600075F9F00606D528680069800702D0284684
:100D700000F06DF9B00308D55FEAC96005D52968B0
:100D800010204860284600F063F9F00307D55FEAB9
:100D9000097004D528684760284600F08DF93004B2
:100DA00046D55FEA497040D5F00504D55FEAC870C2
:100DB00001D044F00104B00504D55FEA887001D584
:100DC00044F00204700504D55FEA487001D544F090
:100DD0000404300529D518F0700F26D008F07000F3
:100DE000402815D006DC102809D020280AD0302849
:100DF00016D10AE050280ED0602811D10EE044F040
:100E000008040DE044F010040AE044F0200407E078
:100E100044F0400404E044F0800401E044F48074B1
:100E20002868816921F07001816129680420486087
:100E3000002C05D0686A204368622846FFF78FFEC1
:100E4000BDE8F09F70B5040003D094F8200010B105
:100E500004E0012070BD204600F082F8206801689F
:100E600021F00201016000F0DFFA0546052604E0EA
:100E700000F0DAFA401B0A2811D820684068800781
:100E8000F6D42068016841F00101016000F0CCFA5D
:100E900005460BE000F0C8FA401B0A2806D9606A34
:100EA00040F40030606284F82060D2E72068406837
:100EB000C007EFD0207E0128206801683DD021F0D6
:100EC00080010160607E01282068016838D021F02F
:100ED00040010160A07E01282068016833D021F024
:100EE00020010160E07E0128206801682ED041F0D9
:100EF00010010160207F01282068016829D021F0BD
:100F000008010160607F01282068016824D021F079
:100F100004010160D4E902010843D4E90412114339
:100F200008436168491E08432168C8610020606267
:100F3000012084F82000002070BD41F08001C0E74E
:100F400041F04001C5E741F02001CAE721F010015E
:100F5000CFE741F00801D4E741F00401D9E70000F0
:100F600010B586B0002100910191029103910068B3
:100F7000174988422AD11748C16941F00071C161FF
:100F8000C16901F000710491816941F0040181613E
:100F90008069114C00F0040004904FF40060009050
:100FA0006946204600F062F9A014009002200190EA
:100FB000032003906946204600F058F900221146AC
:100FC000142000F06BFB142000F05CFB06B010BD99
:100FD000006400400010024000080140704700001B
:100FE0001CB56B46164A0021FFF7BAFD144801688C
:100FF0001448B1F5826F03D0B1F5846F13D01BE0B4
:101000009DF8001001709DF8011041709DF80210CC
:1010100081709DF80310C1709DF8041001719DF856
:101020000510417108E09DF8001081719DF80110D4
:10103000C1719DF8021001720349002008701CBDA7
:1010400080000020DC000020000000207047704776
:101050007047000070B5044690F82000012804D0C5
:10106000606A40F40020606218E0022084F82000EA
:101070002068016821F00101016000F0D5F9054602
:101080000EE000BF00F0D0F9401B0A2808D9606AC2
:1010900040F400306062052084F82000012070BD1B
:1010A00020684068C007EDD1606270BD704770472E
:1010B0007047704770477047704700002DE9F05F38
:1010C000C16B0C6801680B68D0F840C0042202FABA
:1010D0000CF2494DDFF824A1494E4A4FDFF828B100
:1010E000DFF828E122422CD05A072AD50A68920656
:1010F00003D40A6822F004020A600168A94201D1FF
:10110000042219E0514501D1402215E0B14202D13B
:101110004FF4806210E0B94202D14FF480420BE0FC
:10112000594502D14FF4802206E0714502D14FF4B7
:10113000800201E04FF080622F4908394A60C16A9D
:101140003BE04FF0020808FA0CF818EA040F4FF0E1
:1011500000094FF0010235D05FEA837832D50B6881
:101160009B0605D40B6823F00A030B6080F821204E
:101170000168A94201D1022219E0514501D1202282
:1011800015E0B14202D14FF4007210E0B94202D131
:101190004FF400520BE0594502D14FF4003206E003
:1011A000714502D14FF4001201E04FF00072124974
:1011B00008394A6080F82090816A00291AD0BDE879
:1011C000F05F0847082505FA0CF5254212D01B07E9
:1011D00010D50B6823F00E030B6090F84010C36B22
:1011E00002FA01F15960826380F8212080F8209092
:1011F000016BE2E7BDE8F09F080002401C000240DE
:101200003000024044000240580002406C0002409E
:1012100030B528B308C8134914221944B1FBF2F1C0
:101220008900C16310498163022141771A6843F63E
:10123000F0718A43D0E900142143D0E902452C43E0
:1012400021430469214344692143846921431143B3
:10125000196000214163012242770177084630BDC1
:10126000012030BDF8FFFDBF000002402DE9F84F1E
:10127000DFF890A100220AF1040B144601274FF079
:101280000F090BF1040E00BF0B6807FA04F52B40A1
:10129000AB4274D1DFF870C14E68A6EB0C0866450E
:1012A0002BD00DDC032E34D005DC36B3012E19D043
:1012B000022E2FD11BE0112E16D0122E2AD119E0AA
:1012C000B8F5881F19D006DCB8F5803F15D0B8F501
:1012D000801F1FD111E0B8F5001F0ED0B8F5041F14
:1012E00018D10AE0CA6815E0CA68121D12E0CA687F
:1012F00008320FE0CA680C320CE08A682AB1012A71
:101300004FF0080203D0456104E0042202E00561C9
:1013100000E00022FF2B01D8064601E000F10406A0
:101320004FEA840501D9A5F12005D6F800C009FAD5
:1013300005F82CEA080C02FA05F54CEA050CC6F88B
:1013400000C04D68ED0057D5304DAE6946F001063E
:10135000AE61AD6924F0030605F0010500952C4D42
:1013600006EB050CDCF80850A6074FEA167809FAD8
:1013700008F6B543274EB04202D1002610E03BE00C
:10138000254EB04201D101260AE0244EB04201D1DF
:10139000022605E0224EB04201D1032600E00426D9
:1013A00006FA08F62E43CCF808604D68DAF80060BB
:1013B000ED03554601D51E4300E09E432E604D6867
:1013C000DBF80060AD035D4601D51E4300E09E439F
:1013D0002E604D68DEF80060ED02754601D51E43B3
:1013E00000E09E432E604D68AD020E4D2E6801D583
:1013F0001E4300E09E432E60641C102CFFF444AF9B
:10140000BDE8F88F000401400000111000100240F8
:101410000000014000080140000C014000100140A4
:10142000001401400C04014001488068704700002E
:101430007000002070B504001BD094F83D0000251A
:1014400020B984F83C50204600F094F8242084F819
:101450003D002068016821F00101016000F0E6FA1A
:10146000404A6168914201D83F4900E03F498842C3
:1014700001D2012070BD3E492368B0FBF1F15960F3
:101480006368934206D94FF4967359434FF47A73C5
:10149000B1FBF3F12368491C19626168914210D8CD
:1014A0004900401EB0FBF1F2521CC2F30B02042AA9
:1014B00001D2042022E0B0FBF1F0401CC0F30B008D
:1014C0001CE0A368CBB301EBC10202EB0116421E84
:1014D000B2FBF6F2521C42F48042120536D06BB3D6
:1014E00001EBC10202EB0111401EB0FBF1F0401C08
:1014F000C0F30B0040F4804040F400402168C86114
:10150000D4E90701084321680860D4E903100843BF
:1015100021688860D4E9050108432168C860206813
:10152000016841F0010101602564202084F83D003C
:10153000256384F83E50002070BD00E008E001EB18
:101540004106421EB2FBF6F2521CC6E70120D5E767
:1015500001EB4101401EB0FBF1F0401CC0F30B0059
:10156000CAE70000A086010080841E0000093D003B
:1015700040420F0010B586B0002100910191029108
:1015800003910068104988421BD1104CA06940F0BB
:101590000800A061A069694600F0080004904FF4BB
:1015A0004060009012200190032003900848FFF74C
:1015B0005DFEE06940F48000E061E06900F48000D5
:1015C000049006B010BD000000580040001002401A
:1015D000000C014002488168027811448160704724
:1015E00070000020074810B5016841F0100101604B
:1015F000032000F073F8002000F006F800F024F853
:10160000002010BD0020024070B50D4D04464FF47F
:101610007A712878B1FBF0F00A490968B1FBF0F063
:1016200000F01BFD48B9102C07D200222146501EA5
:1016300000F034F800206C6070BD012070BD000027
:10164000700000207C0000200C4808B5816941F042
:1016500001018161816901F001010091C16941F0DD
:101660008051C161C06900F0805000900448416819
:1016700021F0E06141F00071416008BD00100240BE
:101680000000014000F01F0201219140400980004C
:1016900000F1E020C0F8001170470000F0B40E4BDC
:1016A0001B680C46C3F30223C3F10705042D00D9C0
:1016B0000425191D072901D2002300E0DB1E0126A5
:1016C00006FA05F1491E214099409E40761E1640BB
:1016D0003143F0BC01F034B80CED00E0064900F0F5
:1016E000070208684FF6FF03184040EA0220034A49
:1016F00010430860704700000CED00E00000FA05A0
:10170000014901200862704700000E4210B529A46B
:1017100001461DCC86B08DE81D002AA02A4C006829
:1017200004900020012923D002293AD010291DD18C
:1017300061682268D20119D5C1F38342C9031DF83B
:10174000020009D5616804AAC1F34041515C1F4AF7
:10175000B2FBF1F1484301E01D4948436168490289
:1017600004D440005FF00301B0FBF1F006B010BDFF
:10177000226AC2F30121012903D1920701D5C803CE
:10178000F4E7022905D1626A920702D549F6404082
:10179000ECE70329EAD121688903E7D54FF2244019
:1017A000E4E700F053F96168C1F38131491C490055
:1017B000DAE7000002030405060708090A0B0C0D0E
:1017C0000E0F1010010200000010024000127A00FB
:1017D00000093D002DE9F84305460078354CC00767
:1017E00054D0E0690026C00008D4E06940F0805081
:1017F000E061E069012600F0805000902E48016809
:10180000C90512D40168804641F480710160FFF778
:101810000BFE074605E000BFFFF706FEC01B64286D
:1018200023D8D8F80000C005F6D5206A10F440701F
:1018300021D0A98801F4407181421CD0206A1F493F
:10184000012220F440700A6000220A602062C00772
:1018500011D0FFF7E9FD074641F2883808E000BFE4
:10186000FFF7E2FDC11B414502D90320BDE8F88323
:10187000206A8007F4D5206A696820F44070084324
:1018800020621EB1E06920F08050E0612878800776
:1018900005D56068A96820F4404008436060287856
:1018A000C00605D56068E96820F4800008436060E0
:1018B0000020DBE70010024000700040400442427C
:1018C0002DE9F047DFF8548105460E46D8F80000B0
:1018D00000F00700B0420CD2D8F8001021F0070148
:1018E0003143C8F80010D8F8000000F00700B042FB
:1018F0006FD128684A4C810712D5400703D560682C
:1019000040F4E06060602878000703D5606840F428
:10191000605060606068A96820F0F0000843606073
:101920002878C00744D06868012816D021680228AA
:1019300016D0890700294CDA616821F003010143C0
:101940006160FFF771FD6968074641F2883001293F
:101950000ED00229814618D026E021688903E9E7E4
:101960008901E7E7FFF760FDC11B494501D918E090
:1019700081466068C0F381000128F3D118E000BF00
:10198000FFF752FDC11B49450BD86068C0F38100C9
:101990000228F5D10CE000BFFFF746FDC11B494509
:1019A00002D90320BDE8F087606810F00C0FF3D176
:1019B000D8F80010404601F00701B1420BD9016888
:1019C00021F0070131430160006800F00700B042D8
:1019D00001D00120E6E72878400705D56068E9686E
:1019E00020F4E060084360602878000706D560684E
:1019F000296920F4605040EAC100606000F036F8C8
:101A00006168084AC1F30311515CC8400649086087
:101A10000020FFF7F9FD0020C4E70000002002408D
:101A200000100240882C00087C0000200448054972
:101A300000684968044AC1F30221515CC8407047FC
:101A40007C00002000100240982C00080448054942
:101A500000684968044AC1F3C221515CC84070471C
:101A60007C00002000100240982C000812A185B0D4
:101A70000FC98DE80F0014A0144A00680490516843
:101A8000134801F00C03042B10D0082B0ED1C1F326
:101A90008343C9031DF803000AD5516804AAC1F3A2
:101AA0004041515C0A4A5043B0FBF1F005B0704729
:101AB00008494843FAE7000002030405060708093D
:101AC0000A0B0C0D0E0F1010010200000010024056
:101AD00000127A0000093D002DE9F84F0446007815
:101AE000B94DC00748D06868C0F38100012807D00D
:101AF0006868C0F38100022809D16868C00306D570
:101B00002868800338D5606800286FD034E06068AA
:101B1000B0F5803F0BD010B1B0F5A02F11D02868E0
:101B200020F480302860286820F4802002E02868B3
:101B300040F480302860606888B1FFF775FC064685
:101B400009E0286840F480202860F0E7FFF76CFC8B
:101B5000801B642875D828688003F7D50CE0FFF750
:101B600063FC064605E000BFFFF75EFC801B6428AF
:101B7000F0D828688003F7D42078944E80074FF07F
:101B800001094FF000083BD5686810F00C0F07D032
:101B90006868C0F38100022809D16868C00306D4D0
:101BA0002868800714D5206901281FD110E020691A
:101BB000B0B1C6F80090FFF737FC074605E000BF5C
:101BC000FFF732FCC01B0228C4D828688007F7D56D
:101BD0002868616920F0F80040EAC10028600FE041
:101BE000C6F80080FFF720FC074606E0E9E000BFEA
:101BF000FFF71AFCC01B022823D828688007F7D4F7
:101C0000207800072CD57248A169D9B1C0F800909E
:101C1000FFF70AFC074604E0FFF706FCC01B02289A
:101C20000FD8686A8007F7D56A484FF4FA51006800
:101C3000B0FBF1F0009000BF0098411E0091FAD275
:101C40000EE080E0C0F80080FFF7EEFB074604E0FE
:101C5000FFF7EAFBC01B022875D8686A8007F7D433
:101C60002078400760D5E8690027C00008D4E869FB
:101C700040F08050E861E869012700F08050009052
:101C800055480168C90513D40168834641F4807141
:101C90000160FFF7C9FB824606E000BFFFF7C4FB07
:101CA000A0EB0A0064284ED8DBF80000C005F5D58B
:101CB000E06801280AD008B1052813D0286A20F06E
:101CC00001002862286A20F0040002E0286A40F03F
:101CD00001002862E06841F2883B98B1FFF7A4FB5D
:101CE00082460BE0286A40F004002862EEE700BF5D
:101CF000FFF79AFBA0EB0A0159455AD8286A8007DA
:101D0000F6D50CE0FFF790FB824605E0FFF78CFB71
:101D1000A0EB0A0159454CD8286A8007F6D41FB1B8
:101D2000E86920F08050E861E06988B36968C1F330
:101D30008101022945D00228C6F8608004D0FFF74F
:101D400073FB044638E034E0FFF76EFB074604E01F
:101D5000FFF76AFBC01B02282BD828688001F7D444
:101D6000206AB0F5803F05D16868A16820F4003092
:101D700008436860D4E908010843696821F47411D4
:101D800008436860C6F86090FFF74EFB044606E023
:101D900015E000BFFFF748FB001B022809D82868A0
:101DA0008001F7D50BE000BFFFF73EFB001B0228C8
:101DB00002D90320BDE8F88F28688001F4D4002000
:101DC000F8E70120F6E70000001002400000424260
:101DD000800442427C0000200070004070B5040086
:101DE00003D0607C002610B105E0012070BD267490
:101DF000204600F043F802206074204600F010F9FD
:101E0000042578BB204600F0B5FC58BB206841682B
:101E100021F007014160A06820B11748016821F056
:101E2000010101601448001F0168A26821F460717B
:101E3000114301606068411C04D10120FFF766FC7A
:101E400080B1401E21688A6822F00F0242EA1042E7
:101E50008A602168CA6860F30F02CA60204600F0F9
:101E6000A3FC08B16574C0E7E67301206073A0733A
:101E70006074002070BD0000306C004008B5006840
:101E8000084988420DD1FFF73BFC0748C16941F082
:101E90000061C161C069054900F000600090012047
:101EA000086008BD00280040001002403C04424287
:101EB0002DE9F0410D4604003BD0C5B3207C01283C
:101EC0003AD04FF0010884F8108002206074E8785E
:101ED00072B300F046FCE073687800F042FC607377
:101EE000A87800F03EFCA073C2B2617BE07B00F0FA
:101EF0008DFC20732870204600F078FC4FF461615F
:101F0000B0FBF1F1002518292DD91822B1FBF2F10F
:101F1000A1EB011101EB4101C1EB011100EBC11675
:101F20003146204600F0B1FC0427C8B90BE000E0C0
:101F300004E00120BDE8F0810220FBE7E07368784F
:101F40006073A878CFE7204600F049FC411C0AD016
:101F5000B04208D206490144204600F082FC10B18C
:101F600067742574E5E784F8118025740020E1E7A3
:101F7000805101002DE9F0410D46040024D01DB32D
:101F8000207C012823D04FF0010884F81080022023
:101F900060742878EAB100F0E4FB4FF4616100FB63
:101FA00001F6687800F0DDFBC0EB001006EB800660
:101FB000A87800F0D6FB35182946204600F065FCCD
:101FC0000026042710BB0FE00120BDE8F0810220AD
:101FD000FBE74FF4616148436978C1EB011100EB05
:101FE0008100A9784518E7E72068416821F00501DC
:101FF0004160204600F0F3FB411C0AD0A84208D201
:1020000006490144204600F02CFC10B16774267488
:10201000DAE784F8118026740020D6E780510100A9
:1020200070B504000AD02068416821F008014160C1
:10203000FFF7FAF905464FF47A7608E0012070BD03
:10204000FFF7F2F9401BB04201D9032070BD2068B0
:1020500040680007F4D5002070BD10B5401EB0F1F7
:10206000807F01D3012010BD4FF0E02460610F217B
:10207000601700F065FB0020A061072020610020B0
:1020800010BD30B590F83C20012A20D0012280F804
:102090003C20022380F83D3003685C6824F0700423
:1020A0005C6003685C680D682C435C6003689C6836
:1020B00024F080049C6003689C6849680C439C6021
:1020C00080F83D20002180F83C10084630BD0220F9
:1020D00030BD10B5040003D094F83D0010B107E006
:1020E000012010BD002084F83C00204600F00CF8D0
:1020F000022084F83D00211D206800F055FC0120DD
:1021000084F83D00002010BD08B5006806498842EB
:1021100008D10648C16941F00401C161C06900F0FD
:102120000400009008BD00000008004000100240BC
:102130000168CA6842F00102CA600068016841F0A3
:10214000010101600020704770B5044690F83C0022
:10215000012817D0012584F83C50022084F83D0066
:102160002068826822F0770222F47F428260086849
:10217000502837D00DDC202859D005DC88B3102832
:1021800041D151E0022070BD302853D040283AD1CF
:102190003FE060282ED070280BD0B0F5805F03D0D0
:1021A000B0F5005F2FD110E02068816821F00701B1
:1021B00015E0CB68D1E90121206800F036FC2168E8
:1021C000886840F0770088601DE0CB68D1E9012184
:1021D000206800F02AFC2068816841F48041816019
:1021E00011E01EE0CA684968206800F0D3FC502165
:1021F000206806E0CA684968206800F0DCFC6021BD
:10220000206800F01CFC84F83D50002084F83C005D
:1022100070BDCA684968206800F0BCFC4021206895
:10222000EFE700212068ECE710212068E9E7202192
:102230002068E6E730212068E3E7000010B586B0AB
:10224000002100910191029103910368114902223A
:102250001148B3F1804F13D0104CA3420ED18B69BB
:1022600043F004038B61896901F00401049140216A
:10227000CDE9001269460392FEF7F8FF06B010BDE3
:102280008B6943F004038B61896901F004010491B7
:102290000821EDE700100240000801400004004062
:1022A00070B5044690F83C000D4601280DD001267B
:1022B00084F83C60022084F83D0042B1042A18D022
:1022C000082A2AD00C2A4DD139E0022070BD20689E
:1022D00000F0BEFB2068816941F00801816120683F
:1022E000816921F004018161206881692A691143B3
:1022F00011E0206800F0D4FB2068816941F400619E
:1023000081612068816921F480618161206881692F
:102310002A6941EA0221816124E0206800F0ECFB97
:102320002068C16941F00801C1612068C16921F0DC
:102330000401C1612068C1692A69114311E0206864
:1023400000F006FC2068C16941F40061C1612068A9
:10235000C16921F48061C1612068C1692A6941EACB
:102360000221C16184F83D60002084F83C0070BD0A
:1023700010B5040003D094F83D0010B107E001202F
:1023800010BD002084F83C00204600F00DF802202B
:1023900084F83D00211D206800F006FB012084F830
:1023A0003D00002010BD000008B501680B48B1F1E8
:1023B000804F0BD00A4A914207D1C16941F0020116
:1023C000C161C06900F00200009008BDC16941F020
:1023D0000101C161C06900F00100F5E70010024091
:1023E0000004004010B504460068012200F012FB12
:1023F00007492068884203D1416C41F4004141649F
:102400002068016841F001010160002010BD00005A
:10241000002C0140704710B501684A68D24392050C
:1024200007D48A68D243D20703D1921E8A60FFF78D
:10243000F1FF10BDFEE70000FEB500241648009431
:102440000194144902940160891501264461C0E990
:102450000216022505614FF460214460C161FEF758
:10246000BBF908B1FEF7BDF807200094CDE9016083
:1024700069460948FEF732F908B1FEF7B2F800954F
:10248000694605480195FEF729F9002801D0FEF7B5
:10249000A8F8FEBD00240140E8000020104810B557
:1024A0000E4901600321416000214FF4E022816068
:1024B000C0E903124FF40012426101764176817641
:1024C0000122C27601774177FEF7BCFC002803D0D9
:1024D000BDE81040FEF785B810BD00000064004064
:1024E0005C010020094808B5416941F001014161E2
:1024F0004069002200F00100009011460B20FFF718
:10250000CDF8BDE808400B20FFF7BCB80010024032
:102510000D4808B5816941F020018161816901F0B0
:1025200020010091816941F004018161816901F01C
:1025300004010091816941F008018161806900F026
:102540000800009008BD0000001002400D4810B5C2
:102550000B4901600C49416000214FF480428160C9
:10256000C0E9031241618161C1610162FEF762FF4E
:10257000002803D0BDE81040FEF733B810BD0000BE
:102580000058004084010020801A06001CB5002479
:1025900018480194164900940160611E41604FF48F
:1025A00080718160FFF71AFC08B1FEF71AF88DF808
:1025B00004408DF805408DF80640012201A90D4820
:1025C000FFF7D8FC08B1FEF70CF801208DF80000E9
:1025D0008DF801008DF8020002468DF8034069462F
:1025E0000448FFF765FC002801D0FDF7FAFF1CBD89
:1025F00000280040D801002010B58AB000240794BC
:102600001C2168460894FDF7A4FD15484FF0804151
:10261000C0E9001440F2CF21C0E9024104618461A5
:10262000FFF7A6FE08B1FDF7DCFF079407A90C48E9
:102630000894FFF726FD08B1FDF7D3FF6020CDE930
:10264000000402940C22694605480494FFF728FE12
:1026500008B1FDF7C6FF0248FFF7F0FD0AB010BD54
:10266000EC01002010B58AB0002407941C216846B4
:102670000894FDF76EFD16481449C0E9001440F2B5
:10268000CF21C0E9024104618461FFF771FE08B106
:10269000FDF7A7FF079407A90D480894FFF7F1FC81
:1026A00008B1FDF79EFF6020CDE9000402940022EE
:1026B000694607480494FFF7F3FD08B1FDF791FF61
:1026C0000348FFF7BBFD0AB010BD00000004004046
:1026D0002C02002010B586B0002417480094019405
:1026E0000294039404941349059401604721C0E9BE
:1026F000011440F2E731C0E903148461FFF7E9FCFB
:1027000008B1FDF76EFF4FF48050009069460A480B
:10271000FFF71AFD08B1FDF764FF049404A9064809
:102720000594FFF7AEFC002801D0FDF75AFF06B074
:1027300010BD0000000800406C020020FEE770475A
:102740000907090E002806DA00F00F0000F1E0206A
:1027500080F8141D704700F1E02080F800147047E5
:102760007047010901EB810100F00F0000EB41000F
:10277000C0B2704770B50446FEF756FE05464FF4EA
:102780007A7606E0FEF750FE401BB04201D90320E6
:1027900070BD206840688006F4D52068416841F02B
:1027A00010014160002070BD70B5044600684168AA
:1027B00021F010014160FEF737FE05464FF47A76AE
:1027C00007E000BFFEF730FE401BB04201D90320F6
:1027D00070BD206840688006F4D5002070BD016897
:1027E000086A496A89B241EA004070470068816915
:1027F0008AB2C1698BB2816989B28A4203D0C06949
:1028000061F31F40704743EA02407047F0B564240B
:10281000C1EBC1030927A500072603EB0113032918
:10282000B3FBF7F100F5FA60114401440AD2401EEF
:10283000B0FBF4F201EB9001B0FBF5F0891A08440B
:10284000001D08E0B0FBF4F201EB9001B0FBF5F0E5
:10285000891A0844801CB0FBF6F106FB1100C0B2D7
:10286000F0BD70B50D4606460024FFF783FF48B95A
:102870003168280C08623168A8B248623046FFF718
:1028800093FF00B10124204670BD70B50D46064689
:102890000024FFF76FFF48B93168280C8861316860
:1028A000A8B2C8613046FFF77FFF00B1012420467F
:1028B00070BD70472DE9F0471446DDE908591F4601
:1028C00006468846FDF78CFD03D230464146BDE8FA
:1028D000F0872A464B4620463946FDF781FD02D255
:1028E00028464946F3E720463946F0E7FEF772BE30
:1028F00030B593B028216846FDF72BFC14210AA8B7
:10290000FDF727FC00240F9409200121109400906A
:10291000119412944FF4803004910691CDE9010492
:102920000225CDE907504FF4E01009906846FFF703
:10293000D3F80F20CDE90A056802CDE90C40022149
:102940000AA80E94FEF7BCFF03200F9028021090F7
:10295000800111900FA8FEF73DFF13B030BD0000BD
:102960000D48016841F00101016041680B4A1140C6
:10297000416001680A4A11400160016821F4802128
:102980000160416821F4FE0141604FF41F01816044
:102990000449C00308607047001002400000FFF8BF
:1029A000FFFFF6FE08ED00E0F0B50268164B174C8D
:1029B000174D4FF08047984205D0B84203D0A0424F
:1029C00001D0A84203D122F070064A6832439842EF
:1029D00005D0B84203D0A04201D0A84203D122F4CE
:1029E0004074CA68224322F080044A69224302608C
:1029F0008A68C2620A688262984201D109690163E9
:102A000001214161F0BD0000002C014000040040A4
:102A10000008004010B50123046A8B409C43046207
:102A2000036A8A401343036210BD10B5846842EA0A
:102A3000032224F47F440A432243826010BD82684B
:102A400022F070020A4342F00701816070470000E3
:102A500030B5026A22F001020262026A43688469A8
:102A600024F073050C682C4322F002058A682A437F
:102A70000A4DA8420BD122F00805CA6823F440731E
:102A80002A434D6922F004021D438B692B434360A6
:102A9000846149684163026230BD0000002C01403E
:102AA00030B5026A22F010020262026A4368846949
:102AB0000D6824F4E64444EA05248D6822F02002DF
:102AC00042EA05120B4DA8420ED1CD6822F08002D9
:102AD00042EA05124D6923F4406343EA85038D6998
:102AE00022F0400243EA85034360846149688163C0
:102AF000026230BD002C014030B5026A22F48072BF
:102B00000262036A4268C46923F4007324F0730507
:102B10000C682C438D6843EA05230C4DA8420ED166
:102B2000CD6823F4006343EA05234D6922F4405243
:102B300042EA05128D6923F4806342EA051242607D
:102B4000C4614968C163036230BD0000002C0140CC
:102B500030B5026A22F480520262046A4268C36994
:102B60000D6823F4E64343EA05238D6824F40054FA
:102B700044EA0534064DA84204D14D6922F480424E
:102B800042EA85124260C36149680164046230BD53
:102B9000002C014010B5036A046A24F001040462A9
:102BA000846924F0F00444EA021423F00A020A4380
:102BB0008461026210BD10B5036A23F01003036242
:102BC0008369046A23F4704343EA023224F0A003C9
:102BD00043EA01118261016210BD000010B508488E
:102BE000FFF7FCF80748FFF7A3FA0C210648FFF7A8
:102BF000F9FBBDE8104000210448FFF7F3BB0000DB
:102C0000D80100206C020020EC0100202C020020E2
:102C10000148FEF719B800005C010020FEE7000043
:102C20000148FFF7F8BB0000AC02002002E008C832
:102C3000121F08C1002AFAD170477047002001E036
:102C400001C1121F002AFBD17047FEF7CBFCFFF732
:102C50004FFEFFF75DFCFFF745FCFFF71FFCFFF79A
:102C600095FCFFF7C9FCFFF7FDFCFFF76FFCFFF7D2
:102C7000E3FBFFF72FFDFDF783FCFFF7AFFFFDF749
:102C80009FFCFDF7AFFCFAE7000000000000000029
:102C90000102030406070809000000000102030402
:102CA000C02C000800000020800000002C2C000830
:102CB000402D000880000020400600003C2C000849
:102CC00001FF000000000000000000000000000004
:102CD00000000000000000000000000010270000BD
:102CE00000000000000000000000000000000000E4
:102CF00000000000000000000000000000000000D4
:102D000000000000000000000000000000000000C3
:102D100000000000000000000000000000000000B3
:102D200000000000000000000000000000000000A3
:102D300001000000100000000000000000A24A0492
:04000005080000ED02
:00000001FF
